:100000000C9464000C948C000C948C000C948C0068
:100010000C948C000C948C000C948C000C940502B5
:100020000C948C000C948C000C948C000C948C0020
:100030000C948C000C948C000C948C000C948C0010
:100040000C941B0C0C948C000C94F10E0C94230F4C
:100050000C948C000C948C000C948C000C948C00F0
:100060000C94EE0A0C948C000000000800020100C1
:100070000003040700000000000000000102040863
:100080001020408001020408102001020408102002
:10009000040404040404040402020202020203032E
:1000A00003030303000000002300260029000000D2
:1000B0000000250028002B0000000000240027007D
:1000C0002A009B01A30A530F11241FBECFEFD8E0D3
:1000D000DEBFCDBF12E0A0E0B1E0E8E6F5E202C08D
:1000E00005900D92A233B107D9F724E0A2E3B2E064
:1000F00001C01D92A437B207E1F710E0C8ECD0E0D0
:1001000004C02297FE010E949F12C23CD107C9F78A
:100110000E94970F0C94B2120C94000026E040E865
:1001200055E260E070E087ED93E00E948F0E8FE073
:1001300093E00E94990A80E492E00C94EE01809191
:10014000360290913702A0913802B09139028D3970
:1001500022E692072FEFA207B10509F4ADC008F01F
:1001600057C08F3C20E392072FEFA207B10509F497
:10017000B2C018F58F3E20E192072FEFA207B1051C
:1001800009F4B2C048F48D3F9240AF4FB10509F079
:10019000B7C06EE171E0B6C0873E28E192072FEF4D
:1001A000A207B10509F49AC08D3D9242AF4FB10547
:1001B00009F0A6C063E171E0A5C0853B2AE492077F
:1001C0002FEFA207B10509F495C088F4873C28E316
:1001D00092072FEFA207B10509F489C08D3B924425
:1001E000AF4FB10509F08CC06EEC71E08BC08D3A59
:1001F00022E592072FEFA207B10509F47EC0853AE8
:100200009A45AF4FB10509F07BC06DEB71E07AC044
:100210008D3522EA92072FEFA207B10509F449C0F4
:1002200010F585382AE792072FEFA207B10509F4E8
:1002300058C048F487399846AF4FB10509F060C0FF
:1002400065E371E05FC08F3620E992072FEFA207C8
:10025000B105F1F187369849AF4FB10509F050C0AB
:1002600066E471E04FC08D3322EC92072FEFA207B6
:10027000B10529F178F4873528EA92072FEFA20714
:10028000B10519F18F34904BAF4FB105C9F567E552
:1002900071E038C08F3120EE92072FEFA207B10531
:1002A00089F08D31924EAF4FB10551F56EE071E09E
:1002B00029C062E071E026C069E071E023C063E21A
:1002C00071E020C068E271E01DC06BE271E01AC00D
:1002D00060E371E017C068E671E014C069E771E09F
:1002E00011C06AE871E00EC06BE971E00BC06CEA06
:1002F00071E008C06FED71E005C060EF71E002C011
:1003000061E072E087ED93E00E94FF0F64EF71E01F
:1003100080E090E00C94880C62E372E080E492E06C
:100320000E947C09892B31F00E949F0080E492E0BA
:100330000C94A4020895609100017091010180E481
:1003400092E00C94E901CF92DF92EF92FF92CF936B
:10035000DF93EC01882777FD8095982F0E94161176
:100360006B017C0120E030E040E45FE30E94C611B5
:1003700020E030E048E452E40E947B100E94E31049
:10038000C617D707ECF020E030E040EA5FE3C70192
:10039000B6010E94C61120E030E048E452E40E9419
:1003A0007B1020E030E040E85FE30E9413100E94E1
:1003B000E31021E06C177D070CF420E0822F01C0D0
:1003C00080E090E0DF91CF91FF90EF90DF90CF90B1
:1003D000089560934102109243020895F89482E0D8
:1003E0008093B0008093B10094E69093B300109294
:1003F000B2008093700078948093420210920E03B2
:100400008091410260E00C94140D1F920F920FB680
:100410000F9211242F933F934F935F936F937F938A
:100420008F939F93AF93BF93EF93FF93809141027C
:100430000E94830D20914402309145022F5F3F4F6F
:10044000309345022093440290910E03943618F0A5
:1004500095E090934202909142029330B9F018F4E3
:10046000923039F057C0943059F1953009F44CC0AE
:1004700051C081114FC02091440230914502243671
:10048000310508F443C010920E031CC0813009F0FE
:1004900041C0E0910E0391E09E0F90930E03F0E0B7
:1004A0002091440230914502EE0FFF1FEF5BFD4F9C
:1004B00036832583109245021092440294E021C0B5
:1004C000811117C0E0910E0391E09E0F90930E03EF
:1004D000F0E02091440230914502EE0FFF1FEF5BE8
:1004E000FD4F36832583109245021092440293E01B
:1004F00008C020914402309145022536310550F064
:1005000095E09093420206C0811104C0109245020A
:100510001092440290914302992329F0811102C064
:100520002D9A01C02D98FF91EF91BF91AF919F91AE
:100530008F917F916F915F914F913F912F910F908C
:100540000FBE0F901F90189582E080934202109288
:100550000E030895CF93DF93FB01C285D3858A8173
:100560009B81885891098D35910500F580910E0386
:10057000843029F48C819D8180974797D8F08091B1
:100580000E03843498F08C819D81825491098E975A
:1005900068F4269623E030E080E090E0DC014881BA
:1005A00059814950510949305105D8F060E070E057
:1005B000CB013AC08E819F810997099700F7118678
:1005C00010868FEF9FEFDC0184839583A683B7832A
:1005D00081E090E09183808361E070E080E090E0D2
:1005E00023C04A815B81475151094231510580F452
:1005F000880F991FAA1FBB1F81602E5F3F4F249653
:100600002334310561F620E230E031872087DCCFEA
:100610004A815B81465051094730510538F6880FB1
:10062000991FAA1FBB1FE9CFDF91CF9108950F93A8
:100630001F93CF93DF93FB0180910E038A3108F45F
:100640004DC0C285D38588819981843F914060F4F3
:10065000118610868FEF9FEFDC0184839583A6833C
:10066000B78389E090E033C08A819B8185974B975F
:10067000A8F58E010A5F1F4F22E030E080E090E095
:10068000DC0140910E0350E0B9016F5F7F4F6417AA
:1006900075075CF4A80142505109EA01488159816B
:1006A0004750510947305105E8F02150310935953F
:1006B0002795318720872C3031051CF41186108650
:1006C0000DC084839583A683B78382E090E09183F5
:1006D000808361E070E080E090E023C060E070E043
:1006E000CB011FC0E80148815981435151094F3066
:1006F000510550F4880F991FAA1FBB1F81602E5F00
:100700003F4F0C5F1F4FBDCFE801488159814A50D0
:1007100051094930510510F7880F991FAA1FBB1FB7
:10072000EECFDF91CF911F910F910895CF93DF937B
:1007300080910E038634A8F1DB011A96ED91FC91AD
:100740001B97828193810C970B9758F58481958133
:100750000997099730F5868197818C974F9708F50F
:100760008085918589974D97E0F4EF012A9625E0E1
:1007700030E080E090E0DC01488159814C50510923
:100780004B30510570F44A815B814E51510947311C
:10079000510558F04A815B81495051094930510552
:1007A00050F160E070E0CB012BC0880F991FAA1FA9
:1007B000BB1F81602E5F3F4F249625343105E1F643
:1007C000E657FF4F208131812C5031092B30310504
:1007D00040F720E230E0FB01318720878483958356
:1007E000A683B7838DE090E09183808361E070E021
:1007F00080E090E005C0880F991FAA1FBB1FDACFC9
:10080000DF91CF9108950F931F93CF93DF93FB0157
:1008100080910E038A3108F451C0C285D385888146
:1008200099818032934030F4118610868FEF9FEFCC
:10083000DC0107C08A819B81C697869708F442C075
:100840003DC084839583A683B78389E090E091833C
:10085000808361E070E080E090E04FC0E801488173
:100860005981455251094B315105D0F5880F991FD7
:10087000AA1FBB1F81602E5F3F4F0C5F1F4F40912F
:100880000E0350E0B9016F5F7F4F641775075CF48A
:10089000A80142505109EA01488159814C5051093F
:1008A0004B305105D8F221503109359527953187C4
:1008B00020872C3031052CF61186108660E070E020
:1008C000CB011BC08C819D81C6978697B8F78E019E
:1008D000085F1F4F23E030E080E090E0DC01CFCFE5
:1008E000E801488159814C5051094A30510530F78F
:1008F000880F991FAA1FBB1FBECFDF91CF911F91F9
:100900000F910895EF92FF920F931F93CF93DF9370
:10091000FB0180910E03823208F44DC0C285D3855D
:100920008A819B810697079708F045C07E0186E083
:10093000E80EF11C22E030E080E090E0DC01B9013B
:100940006F5F7F4F40910E0350E064177507D4F43A
:10095000E7012297088119810E511109073111050C
:1009600070F5880F991FAA1FBB1F8160E70148819E
:100970005981D4E0ED0EF11C435051094530510529
:1009800050F19B01215031093595279531872087FA
:10099000203131051CF4118610860DC084839583A7
:1009A000A683B7838AE090E09183808361E070E062
:1009B00080E090E013C060E070E0CB010FC04881A0
:1009C00059814C5051094B305105A8F7880F991F98
:1009D000AA1FBB1FCBCF2E5F3F4FB1CFDF91CF916F
:1009E0001F910F91FF90EF9008958F929F92AF9279
:1009F000BF92CF92DF92EF92FF920F931F93CF930C
:100A0000DF937A016901DA01CD91DC91FB018485E4
:100A10009585C817D9070CF04AC0CE01880F991FD9
:100A20000284F385E02DE80FF91FA080B180C1702A
:100A3000DD27F1E0CF27209719F484E690E002C08B
:100A40008CE99FEF4801880E991EB401C5010E94F0
:100A5000A301892B99F4800E911EB401C5010E9457
:100A6000A301892B71F4B401600F711FC5010E94AD
:100A7000A301892BF9F023E030E005C021E030E04C
:100A800002C022E030E0D6018D919C911197019631
:100A90008217930744F0F60111821082D7018D91DD
:100AA0009C91119701968D939C93CE0105C081E096
:100AB00090E002C08FEF9FEFDF91CF911F910F91D8
:100AC000FF90EF90DF90CF90BF90AF909F908F906E
:100AD00008954F925F926F927F928F929F92AF9202
:100AE000BF92CF92DF92EF92FF920F931F93CF931B
:100AF000DF9300D000D0CDB7DEB76C017B018091D1
:100B00000E038D3020F460E070E0CB017AC081E00C
:100B100090E09C838B831A82198209E713E09E017F
:100B20002F5F3F4FAE014D5F5F4FC6010E94F5043E
:100B3000892B49F79E012F5F3F4FAE014D5F5F4FFD
:100B4000B701C6010E94F5040197E9F69E012F5FE7
:100B50003F4FAE014D5F5F4FB701C6010E94F504E4
:100B6000892B89F6A12CB12C412C512C320180917A
:100B70000E0390E02B813C81281739079CF509E78B
:100B800013E09E012F5F3F4FAE014D5F5F4FB701F6
:100B9000C6010E94F5044C019E012F5F3F4FAE013C
:100BA0004D5F5F4FB701C6010E94F50421E0821638
:100BB000910451F4892B09F0A6CF440C551C661CF6
:100BC000771C689440F80AC0892809F09CCF0197E7
:100BD00009F099CF440C551C661C771C8FEFA81A9E
:100BE000B80AC5CFF701B186A086448255826682D5
:100BF000778283E090E09183808361E070E080E021
:100C000090E00F900F900F900F90DF91CF911F9178
:100C10000F91FF90EF90DF90CF90BF90AF909F909B
:100C20008F907F906F905F904F9008952F923F929A
:100C30004F925F926F927F928F929F92AF92BF92EC
:100C4000CF92DF92EF92FF920F931F93CF93DF9398
:100C500000D000D0CDB7DEB76C017B01DB011C9664
:100C60008D919C911D971816190624F060E070E094
:100C7000CB01B4C081E090E09C838B83DB011A96AA
:100C8000ED91FC911B978281938189974E9770F724
:100C900082E090E09C838B83848195810B970A97F7
:100CA00028F783E090E09C838B831A8219820CEBF7
:100CB00011E09E012F5F3F4FAE014D5F5F4FC601B8
:100CC0000E94F504892B91F60CEB11E09E012F5F39
:100CD0003F4FAE014D5F5F4FB701C6010E94F50463
:100CE000019721F6A12CB12C212C312C21012B8133
:100CF0003C81F70184859585281739070CF060C081
:100D00000CEB11E09E012F5F3F4FAE014D5F5F4F37
:100D1000B701C6010E94F5043C01B3E0AB16B10473
:100D200091F00CEB11E09E012F5F3F4FAE014D5F44
:100D30005F4FB701C6010E94F5044C01E3E0AE1617
:100D4000B10409F510C00CEB11E09E012F5F3F4F7D
:100D5000AE014D5F5F4FB701C6010E94F5046816F2
:100D60007906F9F283CF0CEB11E09E012F5F3F4F24
:100D7000AE014D5F5F4FB701C6010E94F5048816B2
:100D8000990609F073CF6114710459F48A94892883
:100D900009F06CCF220C331C441C551C689420F8BD
:100DA0000BC06A94672809F061CF892809F05ECFEB
:100DB000220C331C441C551CAFEFAA1ABA0A97CF59
:100DC000B186A086248235824682578284E090E0F4
:100DD0009183808361E070E080E090E00F900F905D
:100DE0000F900F90DF91CF911F910F91FF90EF9097
:100DF000DF90CF90BF90AF909F908F907F906F903B
:100E00005F904F903F902F9008950F931F93CF9333
:100E1000DF93FB01A285B38512968D919C91139768
:100E2000C6978697D0F414968D919C9115974B9701
:100E3000459798F41696C3E0D0E020E030E040E01B
:100E400050E060E070E080E090E00D911C9111971F
:100E5000095011090830110520F060E070E0CB0165
:100E600035C012960D911C911397015111090D3047
:100E70001105F8F401E00E94661221602296149692
:100E8000C336D10511F7248335834683578300E2A7
:100E90000E9481122283338387E090E091838083D4
:100EA00080E390E09187808761E070E080E090E0EF
:100EB0000DC012960D911C91139704501109053025
:100EC000110558F601E00E946612D8CFDF91CF914C
:100ED0001F910F910895CF93DF93EB012A853B85F6
:100EE000F901828193818957910983359105B8F47D
:100EF00080910E03893398F0F90184819581CA9716
:100F0000899768F4369643E050E080E090E0DC0199
:100F1000608171816A5071096930710520F060E06B
:100F200070E0CB0139C06281738166517109613112
:100F3000710530F5880F991FAA1FBB1F81604E5F96
:100F40005F4F34964B33510519F7F901EA58FF4FBB
:100F5000208131812A5031092930310500F72CE1F7
:100F600030E0398728878C839D83AE83BF838CE0F4
:100F700090E09983888361E070E080E090E00CC0AD
:100F800062817381665071096730710540F6880F80
:100F9000991FAA1FBB1FD3CFDF91CF9108950F9345
:100FA0001F93CF93DF93FB0180910E03028513857E
:100FB0008232A9F4D80112968D919C9113970A97C9
:100FC000099768F480910E03D801A80FB11DA80FEE
:100FD000B11D12978D919C910A97099770F0D801D5
:100FE00012968D919C91139789579109833591059C
:100FF00050F060E070E0CB015EC0118610868FEF8C
:101000009FEFDC014CC080910E03813290F3E80128
:101010008C819D81CA97899760F798012A5F3F4F1D
:1010200043E050E080E090E0DC01E90168817981F3
:101030006A50710969307105E0F6E9016A817B81C6
:101040006651710961317105E0F4880F991FAA1F7B
:10105000BB1F81604E5F5F4F2C5F3F4F4332510596
:1010600021F7E801CA5BDF4F288139812A50310915
:101070002930310508F0BDCF20E130E031872087ED
:101080000EC0E9016A817B81665071096730710584
:1010900008F0AFCF880F991FAA1FBB1FDBCF848337
:1010A0009583A683B78388E090E09183808361E095
:1010B00070E080E090E0DF91CF911F910F91089553
:1010C000CF93DF93FB01C285D3858A819B818C54AA
:1010D0009109C59700F580910E03843029F48C8125
:1010E0009D8180974797D8F080910E03843498F0C3
:1010F0008C819D8189549109C39768F4269623E0D9
:1011000030E080E090E0DC0148815981495051098C
:1011100049305105D8F060E070E0CB013AC08E81D3
:101120009F810997099700F7118610868FEF9FEF2F
:10113000DC0184839583A683B7838BE090E0918361
:10114000808361E070E080E090E023C04A815B81B1
:10115000465151094131510580F4880F991FAA1F4A
:10116000BB1F81602E5F3F4F24962334310561F60B
:1011700020E230E031872087DCCF4A815B81465016
:1011800051094730510538F6880F991FAA1FBB1F18
:10119000E9CFDF91CF9108958F929F92AF92BF9246
:1011A000CF92DF92EF92FF927B01BA0180E090E054
:1011B0000E9414114B015C01B70180E090E00E9495
:1011C00014116B017C012DEC3CEC4CE45FE30E94BC
:1011D000C6119B01AC01C501B4010E94771087FDC7
:1011E00017C02DEC3CEC4CE45FE3C501B4010E9458
:1011F000C6119B01AC01C701B6010E947710992767
:1012000087FD90958827990F881F9927019602C01E
:1012100080E090E0FF90EF90DF90CF90BF90AF9094
:101220009F908F9008958F929F92AF92BF92CF928E
:10123000DF92EF92FF920F931F93CF93DF936C0196
:10124000EB01EC84FD8486E0E816F1040CF444C064
:10125000EE0CFF1C06E010E0E5EC8E2EEDE99E2E74
:10126000ECE1AE2EE1E8BE2E8A859B85FC01E00F05
:10127000F11F40815181F8013497E80FF91F608117
:101280007181C6010E94CC08FC01A501940163E9AB
:1012900071E080E091E00E9429124F01AA2497FC9E
:1012A000A094BA2C86269726A826B9260E5F1F4F33
:1012B0000E151F05C9F68C829D82AE82BF8280E228
:1012C00090E0998788878FEF9FEF9983888361E00B
:1012D00070E080E090E003C060E070E0CB01DF915F
:1012E000CF911F910F91FF90EF90DF90CF90BF9023
:1012F000AF909F908F9008950F931F93CF93DF939C
:101300008C01EB0186E492E09B878A8780910E0333
:1013100090E09D878C8780914202853009F06BC0F8
:10132000C8010E94AA02672B682B692B19F081E083
:1013300090E063C0BE01C8010E941703672B682BB1
:10134000692BA9F7BE01C8010E940304672B682B13
:10135000692B69F7BE01C8010E948204672B682BC4
:10136000692B29F7BE01C8010E946905672B682B0C
:10137000692BE9F6BE01C8010E941606672B682B8F
:10138000692BA9F6BE01C8010E940507672B682BCF
:10139000692B69F6BE01C8010E946B07672B682B99
:1013A000692B29F6BE01C8010E94CF07672B682B65
:1013B000692B09F0BCCFBE01C8010E946008672BF1
:1013C000682B692B09F0B3CFBE01C8010E949603B8
:1013D000672B682B692B09F0AACFBE01C8010E94B8
:1013E0001309672B682B692B09F0A1CF82E080934A
:1013F000420210920E0380E090E0DF91CF911F91A6
:101400000F91089580913E0390E020913F03821B4D
:101410009109089520913F0380913E03281750F4CD
:10142000E22FF0E0E05CFC4F808190E02F5F2093A2
:101430003F0308958FEF9FEF0895E0913F03809160
:101440003E03E81730F4F0E0E05CFC4F808190E070
:1014500008958FEF9FEF08950895CF92DF92EF9256
:10146000FF920F931F93CF93DF937C01CB018A01EF
:1014700020911B03222389F0EB016B01C40ED51EC2
:10148000CC15DD0569F06991D701ED91FC910190D2
:10149000F081E02DC7010995F3CF642F0E94C50AA2
:1014A000C801DF91CF911F910F91FF90EF90DF90D6
:1014B000CF900895CF93DF931F92CDB7DEB76983A6
:1014C00020911B032223D1F020911C03203240F0F5
:1014D00021E030E0FC013383228380E090E015C0FE
:1014E00080911D03E82FF0E0E25EFC4F998190832C
:1014F0008F5F80931D0380931C0305C061E0CE01C4
:1015000001960E94C50A81E090E00F90DF91CF9193
:101510000895FC011382128248EE53E060E070E00F
:10152000448355836683778386E192E09183808349
:10153000089510923F0310923E0310921D031092E3
:101540001C030C94A70A8FE093E00C94890A109274
:10155000CD0381E08093CB031092CA0361E082E166
:101560000E944D0D61E083E10E944D0DE9EBF0E03A
:1015700080818E7F808380818D7F808388E48093CB
:10158000B80085E48093BC000895613298F42091FE
:10159000CD03243089F460938203FC0184E893E056
:1015A000DC012A2F281B261718F421912D93F9CF3F
:1015B00080E0089581E0089582E0089585ED8093AC
:1015C000BC008091BC0084FDFCCF1092CD03089537
:1015D00085EC8093BC001092CD0308951F920F926A
:1015E0000FB60F9211242F933F934F935F936F93F6
:1015F0007F938F939F93AF93BF93EF93FF938091CC
:10160000B900887F803609F49CC068F5883209F4F7
:101610005BC090F4803109F454C038F4882309F495
:10162000F5C0883009F44DC0F5C0883109F44CC0CC
:10163000803209F45DC0EEC0803409F468C048F41B
:10164000803309F455C0883309F0E4C08093600307
:10165000A8C0803509F44FC0883509F45DC08834CE
:1016600009F0D8C0D5C0883909F4C6C0A8F48837B5
:1016700009F467C038F4883609F463C0803709F488
:1016800060C0C8C0883809F4B7C0803909F45FC0A9
:10169000803809F0BFC05BC0803B09F485C038F4D6
:1016A000803A09F466C0883A09F47EC0B3C0803C31
:1016B00009F4A6C0883C09F4A3C0883B09F489C09A
:1016C000A9C08091CC0310C09091A5038091A40380
:1016D000981770F5E091A50381E08E0F8093A50324
:1016E000F0E0EA55FC4F80818093BB0085EC85C01B
:1016F000809360038DC0E091A50381E08E0F8093FD
:10170000A5038091BB00F0E0EA55FC4F80839091E7
:10171000A5038091A4036DC0E091A50381E08E0F25
:101720008093A5038091BB00F0E0EA55FC4F8083D5
:101730008091CB0381116CC081E08093CA0384EA5D
:1017400060C083E08093CD0310926103CFCF80917E
:101750006103803208F050C0E091610381E08E0F98
:10176000809361038091BB00F0E0EE59FC4F8083D1
:10177000BDCF80916103803230F4E0916103F0E0ED
:10178000EE59FC4F10820E94DE0A6091610370E006
:10179000E091C603F091C70382E693E009951092A9
:1017A00061030E94E80A36C084E08093CD03109262
:1017B000830310928203E091C803F091C903099555
:1017C00080918203811105C081E080938203109291
:1017D0008403E091830381E08E0F80938303F0E024
:1017E000EC57FC4F80818093BB00909183038091E4
:1017F0008203981708F47ACF85E88093BC000AC06A
:1018000085EC8093BC001092CD0304C0109260035D
:101810000E94DE0AFF91EF91BF91AF919F918F914E
:101820007F916F915F914F913F912F910F900FBEDC
:101830000F901F9018951F920F920FB60F921124C0
:101840002F933F938F939F93AF93BF938091CF0339
:101850009091D003A091D103B091D2033091CE03E7
:1018600023E0230F2D3720F40196A11DB11D05C0E3
:1018700026E8230F0296A11DB11D2093CE0380936D
:10188000CF039093D003A093D103B093D203809160
:10189000D3039091D403A091D503B091D6030196C0
:1018A000A11DB11D8093D3039093D403A093D503BE
:1018B000B093D603BF91AF919F918F913F912F919C
:1018C0000F900FBE0F901F9018953FB7F89480911E
:1018D000D3039091D403A091D503B091D60326B53C
:1018E000A89B05C02F3F19F00196A11DB11D3FBF58
:1018F0006627782F892F9A2F620F711D811D911DE8
:1019000042E0660F771F881F991F4A95D1F7089507
:10191000CF92DF92EF92FF92CF93DF936B017C0126
:101920000E94650CEB01C114D104E104F10489F0BB
:101930000E9411100E94650C6C1B7D0B683E734069
:1019400090F381E0C81AD108E108F108C851DC4FD2
:10195000EACFDF91CF91FF90EF90DF90CF90089585
:10196000789484B5826084BD84B5816084BD85B57A
:10197000826085BD85B5816085BDEEE6F0E0808141
:1019800081608083E1E8F0E0108280818260808362
:10199000808181608083E0E8F0E0808181608083E5
:1019A000E1EBF0E0808184608083E0EBF0E0808117
:1019B00081608083EAE7F0E08081846080838081B9
:1019C0008260808380818160808380818068808361
:1019D0001092C1000895833081F028F4813099F08D
:1019E0008230A1F008958730A9F08830B9F08430B2
:1019F000D1F4809180008F7D03C0809180008F772B
:101A000080938000089584B58F7702C084B58F7D60
:101A100084BD08958091B0008F7703C08091B0009D
:101A20008F7D8093B0000895CF93DF9390E0FC0109
:101A3000E458FF4F2491FC01E057FF4F8491882325
:101A400049F190E0880F991FFC01E854FF4FA591E0
:101A5000B49182559F4FFC01C591D4919FB76111FC
:101A600008C0F8948C91209582238C9388818223DE
:101A70000AC0623051F4F8948C91322F3095832350
:101A80008C938881822B888304C0F8948C91822B5C
:101A90008C939FBFDF91CF9108950F931F93CF93A6
:101AA000DF931F92CDB7DEB7282F30E0F901E85958
:101AB000FF4F8491F901E458FF4F1491F901E05769
:101AC000FF4F04910023C9F0882321F069830E940D
:101AD000EB0C6981E02FF0E0EE0FFF1FE255FF4FA6
:101AE000A591B4919FB7F8948C91611103C01095A2
:101AF000812301C0812B8C939FBF0F90DF91CF91E9
:101B00001F910F910895CF93DF93282F30E0F901B3
:101B1000E859FF4F8491F901E458FF4FD491F9013E
:101B2000E057FF4FC491CC2391F081110E94EB0C40
:101B3000EC2FF0E0EE0FFF1FEC55FF4FA591B49195
:101B40002C912D2381E090E021F480E002C080E020
:101B500090E0DF91CF910895FC01818D228D90E07E
:101B6000805C9F4F821B91098F7399270895FC0118
:101B7000918D828D981731F0828DE80FF11D858D42
:101B800090E008958FEF9FEF0895FC01918D828D75
:101B9000981761F0828DDF01A80FB11D5D968C91C1
:101BA000928D9F5F9F73928F90E008958FEF9FEFCC
:101BB000089589E49FE0892B49F080E090E0892B2B
:101BC00029F00E94490F81110C9400000895FC0136
:101BD000848DDF01A80FB11DA35ABF4F2C91848DB6
:101BE00090E001968F739927848FA689B7892C93EB
:101BF000A089B1898C9180648C93938D848D981386
:101C000006C00288F389E02D80818F7D808308954E
:101C1000CF93DF93EC01888D8823C9F0EA89FB8993
:101C2000808185FD05C0A889B9898C9186FD0FC08A
:101C30000FB607FCF5CF808185FFF2CFA889B9895F
:101C40008C9185FFEDCFCE010E94E70DE7CFDF91AC
:101C5000CF910895CF92DF92FF920F931F93CF936E
:101C6000DF931F92CDB7DEB76C01DC015B969C91D0
:101C70005B975C968C915C97981307C05096ED919A
:101C8000FC915197808185FD32C0F601038D10E0F3
:101C90000F5F1F4F0F731127F02EF601848DF8127E
:101CA00011C00FB607FCF9CFD6015096ED91FC910B
:101CB0005197808185FFF1CFC60169830E94E70DAE
:101CC0006981EBCF838DE80FF11DE35AFF4F6083ED
:101CD000D6015B960C935B975296ED91FC915397CE
:101CE00080818062808381E058968C930DC0D601FC
:101CF0005696ED91FC91579760835096ED91FC912B
:101D0000519780818064808381E090E00F90DF9123
:101D1000CF911F910F91FF90DF90CF900895BF92C8
:101D2000CF92DF92EF92FF92CF93DF93EC016A01A3
:101D30007B01B22EE889F98982E08083411581EE2A
:101D4000580761057105A1F060E079E08DE390E04E
:101D5000A70196010E943912215031094109510908
:101D60005695479537952795211580E1380798F0C6
:101D7000E889F989108260E874E88EE190E0A701B3
:101D800096010E9439122150310941095109569595
:101D9000479537952795EC85FD853083EE85FF8542
:101DA0002083188EEC89FD89B082EA89FB898081C5
:101DB00080618083EA89FB89808188608083EA89E9
:101DC000FB89808180688083EA89FB8980818F7D9F
:101DD0008083DF91CF91FF90EF90DF90CF90BF9005
:101DE00008951F920F920FB60F9211242F938F9385
:101DF0009F93EF93FF93E091E703F091E8038081D5
:101E0000E091ED03F091EE0382FD12C0908180918C
:101E1000F0038F5F8F732091F103821751F0E091EF
:101E2000F003F0E0E952FC4F958F8093F00301C07E
:101E30008081FF91EF919F918F912F910F900FBE15
:101E40000F901F9018951F920F920FB60F921124AA
:101E50002F933F934F935F936F937F938F939F93B2
:101E6000AF93BF93EF93FF9387ED93E00E94E70D4D
:101E7000FF91EF91BF91AF919F918F917F916F9162
:101E80005F914F913F912F910F900FBE0F901F9038
:101E9000189587ED93E00E94AC0D21E0892B09F4A1
:101EA00020E0822F08951092DA031092D90388EE71
:101EB00093E0A0E0B0E08093DB039093DC03A09379
:101EC000DD03B093DE0386E292E09093D803809323
:101ED000D70385EC90E09093E4038093E30384ECD4
:101EE00090E09093E6038093E50380EC90E090937C
:101EF000E8038093E70381EC90E09093EA038093FA
:101F0000E90382EC90E09093EC038093EB0386EC82
:101F100090E09093EE038093ED031092F003109203
:101F2000F1031092F2031092F303089508950E94B2
:101F3000B00C0E94960F0E948E00C9EDDDE00E9459
:101F40008C012097E1F30E94D90DF9CFCF92DF9257
:101F5000EF92FF920F931F93CF93DF936C017A015F
:101F6000EB01E60EF71E00E010E0CE15DF0561F094
:101F70006991D601ED91FC910190F081E02DC601AF
:101F80000995080F191FF1CFC801DF91CF911F915B
:101F90000F91FF90EF90DF90CF900895611571053C
:101FA00081F0DB010D900020E9F7AD0141505109AE
:101FB000461B570BDC01ED91FC910280F381E02D73
:101FC000099480E090E00895DC01ED91FC9101908E
:101FD000F081E02D09940F931F93CF93DF93EC01D1
:101FE0006DE00E94E40F8C016AE0CE010E94E40FD4
:101FF000800F911FDF91CF911F910F9108950F9343
:102000001F93CF93DF93EC010E94CE0F8C01CE0182
:102010000E94EB0F800F911FDF91CF911F910F91C5
:10202000089508955058BB27AA270ED075C166D1D0
:1020300030F06BD120F031F49F3F11F41EF45BC1FE
:102040000EF4E095E7FB51C1E92F77D180F3BA1781
:10205000620773078407950718F071F49EF58FC126
:102060000EF4E0950B2EBA2FA02D0B01B9019001B3
:102070000C01CA01A0011124FF27591B99F0593FF7
:1020800050F4503E68F11A16F040A22F232F342F3F
:102090004427585FF3CF469537952795A795F0408D
:1020A0005395C9F77EF41F16BA0B620B730B840BA2
:1020B000BAF09150A1F0FF0FBB1F661F771F881F5A
:1020C000C2F70EC0BA0F621F731F841F48F48795B2
:1020D00077956795B795F7959E3F08F0B3CF9395A1
:1020E000880F08F09927EE0F979587950895D9D016
:1020F00008F481E008950CD00FC107D140F0FED064
:1021000030F021F45F3F19F0F0C0511139C1F3C034
:1021100014D198F39923C9F35523B1F3951B550BAB
:10212000BB27AA2762177307840738F09F5F5F4FAA
:10213000220F331F441FAA1FA9F333D00E2E3AF0EB
:10214000E0E830D091505040E695001CCAF729D005
:10215000FE2F27D0660F771F881FBB1F2617370754
:102160004807AB07B0E809F0BB0B802DBF01FF2784
:1021700093585F4F2AF09E3F510568F0B6C000C1EA
:102180005F3FECF3983EDCF3869577956795B795BE
:10219000F7959F5FC9F7880F911D9695879597F9D9
:1021A0000895E1E0660F771F881FBB1F6217730752
:1021B0008407BA0720F0621B730B840BBA0BEE1F67
:1021C00088F7E095089504D06894B111D9C00895B6
:1021D000BCD088F09F5790F0B92F9927B751A0F045
:1021E000D1F0660F771F881F991F1AF0BA95C9F7AB
:1021F00012C0B13081F0C3D0B1E00895C0C0672FE4
:10220000782F8827B85F39F0B93FCCF3869577955A
:102210006795B395D9F73EF4909580957095619543
:102220007F4F8F4F9F4F0895E89409C097FB3EF46E
:1022300090958095709561957F4F8F4F9F4F992313
:10224000A9F0F92F96E9BB279395F6958795779591
:102250006795B795F111F8CFFAF4BB0F11F460FF51
:102260001BC06F5F7F4F8F4F9F4F16C0882311F0A9
:1022700096E911C0772321F09EE8872F762F05C0BD
:10228000662371F096E8862F70E060E02AF09A9558
:10229000660F771F881FDAF7880F9695879597F94D
:1022A0000895990F0008550FAA0BE0E8FEEF1616E7
:1022B0001706E807F907C0F012161306E407F5073A
:1022C00098F0621B730B840B950B39F40A2661F0AE
:1022D000232B242B252B21F408950A2609F4A14051
:1022E000A6958FEF811D811D089597F99F6780E85E
:1022F00070E060E008959FEF80EC089500240A9458
:102300001616170618060906089500240A941216D0
:102310001306140605060895092E0394000C11F403
:10232000882352F0BB0F40F4BF2B11F460FF04C0B0
:102330006F5F7F4F8F4F9F4F089557FD9058440F09
:10234000551F59F05F3F71F04795880F97FB991F14
:1023500061F09F3F79F087950895121613061406D1
:10236000551FF2CF4695F1DF08C01616170618065E
:10237000991FF1CF86957105610508940895E89439
:10238000BB2766277727CB0197F908950BD0C4CFD9
:10239000B5DF28F0BADF18F0952309F0A6CFABCF50
:1023A0001124EECFCADFA0F3959FD1F3950F50E033
:1023B000551F629FF001729FBB27F00DB11D639FF7
:1023C000AA27F00DB11DAA1F649F6627B00DA11D9D
:1023D000661F829F2227B00DA11D621F739FB00D43
:1023E000A11D621F839FA00D611D221F749F3327B3
:1023F000A00D611D231F849F600D211D822F762F4C
:102400006A2F11249F5750408AF0E1F088234AF048
:10241000EE0FFF1FBB1F661F771F881F9150504094
:10242000A9F79E3F510570F060CFAACF5F3FECF354
:10243000983EDCF3869577956795B795F795E79580
:102440009F5FC1F7FE2B880F911D9695879597F991
:102450000895DB018F939F930E945B12BF91AF9110
:10246000A29F800D911DA39F900DB29F900D1124EE
:102470000895A1E21A2EAA1BBB1BFD010DC0AA1FC5
:10248000BB1FEE1FFF1FA217B307E407F50720F0DD
:10249000A21BB30BE40BF50B661F771F881F991F58
:1024A0001A9469F760957095809590959B01AC01A1
:1024B000BD01CF0108950E94A312A59F900DB49F66
:1024C000900DA49F800D911D112408950F93083045
:1024D00090F0982F872F762F652F542F432F322F70
:1024E00022270850F4CF220F331F441F551F661FA9
:1024F000771F881F991F0A95B2F70F91089597FBD0
:1025000010F8169400080F93083098F00850232F05
:10251000342F452F562F672F782F892F902DF4CFEA
:10252000059497958795779567955795479537952E
:1025300027950A95AAF70F910895EE0FFF1F0590B2
:10254000F491E02D0994A29FB001B39FC001A39F15
:10255000700D811D1124911DB29F700D811D1124DC
:08256000911D0895F894FFCFCE
:1025680002004F4E5F4F4646004D4F4445004D55C3
:10257800544500504C41592F504155534500505235
:102588004556004E45585400455100564F4C2D00B5
:10259800564F4C2B002030202020202020202020A7
:1025A800202020202000203130302B202020202007
:1025B80020202020202000203230302B20202020F6
:1025C8002020202020202000203120202020202012
:1025D8002020202020202020002032202020202001
:1025E80020202020202020202000203320202020F0
:1025F80020202020202020202020002034202020DF
:1026080020202020202020202020200020352020CD
:1026180020202020202020202020202000203620BC
:1026280020202020202020202020202020002037AB
:1026380020202020202020202020202020200020B2
:10264800382020202020202020202020202020008A
:102658002039202020202020202020202020202059
:1026680000206F7468657220627574746F6E202024
:102678002000000000005A0A2D0A020A0A0A1D0A50
:102688002C0A000000002A0EA60FAC0DC50DB70DD0
:02269800080E2A
:00000001FF
